:100000000C94CD000C94EC000C94EC000C94EC00DF
:100010000C94EC000C94EC000C94EC000C94EC00B0
:100020000C94EC000C94EC000C9475140C94EC0003
:100030000C94EC000C94A9140C94EC000C941D1D71
:100040000C94EC000C94EC000C94EC000C94EC0080
:100050000C94EC000C94EC000C94EC000C94EC0070
:100060000C94EC000C94E11B0C94EC000C94EC0050
:100070000C94EC000C94FF1D0C94EC000C94EC0020
:100080000C94D4390C94EA390C94EC000C94473954
:100090000C94EC000C94EC000C94EC000C94EC0030
:1000A0000C94EC000C94EC000C941B390C9431393A
:1000B0000C94EC000C9484380C94EC000C94EC0040
:1000C0000C94EC000C94EC000C94EC000C94EC0000
:1000D0000C94EC000C94EC000C94EC000C94EC00F0
:1000E0000C94EC0099177E174E173A171217001749
:1000F000D816BC1683166B160C160C160C160C169E
:100100000C160C16B01660160C160C160C160C16E7
:100110000C160C160C160C160C160C160C160C16CF
:1001200083164E1738162B160C160C160C160C16BA
:100130000C160C160C160C160C160C160C160C16AF
:100140001217D8160C160C16991700174416084AE1
:10015000D73B3BCE016E84BCBFFDC12F3D6C7431DB
:100160009ABD56833DDA3D00C77F11BED9E4BB4C32
:100170003E916BAAAABE000000803F05A84CCDB2FC
:10018000D44EB93836A9020C50B9918688083CA6DD
:10019000AAAA2ABE000000803F0011241FBECFEF94
:1001A000D1E2DEBFCDBF00E00CBF12E0A0E0B2E0C4
:1001B000EAE3F0EB02C005900D92AA32B107D9F73D
:1001C0001BE0AAE2B2E001C01D92AF38B107E1F72F
:1001D0000E94EE000C941C580C9400002F923F9249
:1001E0004F925F926F927F928F929F92AF92BF9247
:1001F000CF92DF92EF92FF920F931F93DF93CF93F3
:10020000CDB7DEB72C970FB6F894DEBF0FBECDBFCB
:100210000E94BC1C0E94003A0E94931D9B01AC01ED
:100220006093760430937704409378045093790474
:1002300010927A0410927B0410927C0410927D0438
:100240000E94931D7B018C010E94931D6E197F09F2
:10025000800B910B65342BE0720720E0820720E0D1
:10026000920790F30E9487400E94931D6B017C01CE
:1002700080E090E0DC018B839C83AD83BE8380E0D3
:1002800090E01A82198200E08824992454011FEF1B
:1002900072E0672E6EE1462E512C50E8252E312C4F
:1002A000772473949C878B870E94971C80936204A9
:1002B0000E94453F0E949E4680916204873009F467
:1002C0006DC10E94931D6C197D098E099F096E31C5
:1002D000BBE47B07B0E08B07B0E09B0708F000C1F0
:1002E0000E94D9150E94601080916204873009F441
:1002F00013C1883008F060C0833009F4A8C184308D
:1003000008F062C1813009F45BC2823008F0A1C1FB
:100310000E94523780916204882309F0DCC080E09B
:10032000081711F20E94473C0E944E3C80910B013D
:10033000816080930B0180910B01826080930B019F
:1003400080910B01846080930B01A39A80910B0133
:10035000806180930B0180910B01806280930B017F
:1003600080910B01806480930B0180910B01806868
:1003700080930B01109308021093090210930A0254
:100380008FEF0E948E3C809109020E94A23C8091D6
:100390000A020E94B63C80E00E94A12480E00E94F4
:1003A00084241092280310927F0410926604109205
:1003B000E7040091620478CF8B3009F47DC18C3062
:1003C00008F02EC1893009F4A8C18A3008F499C117
:1003D00080916604813009F4F0C6813008F0D1C301
:1003E0000E94931D60936A0470936B0480936C0465
:1003F00090936D040E94931D609372047093730434
:1004000080937404909375040E94931D60936E040E
:1004100070936F0480937004909371040E94433C26
:1004200084E10E94842484E10E94A12470926604E5
:1004300080918104813009F4D7C3813008F038C33A
:10044000109308021093090210930A020E94931D50
:100450009B01AC018091720490917304A09174048B
:10046000B0917504281B390B4A0B5B0B213CF3E060
:100470003F07F0E04F07F0E05F0710F00C947A0BB5
:100480000E94931D9B01AC0180916E0490916F04BA
:10049000A0917004B0917104281B390B4A0B5B0BBF
:1004A0002E316BE4360760E0460760E0560710F037
:1004B0000C946C0B809108020E948E3C8091090282
:1004C0000E94A23C80910A020E94B63C8091620484
:1004D000882309F424CF0E9454348091620420CFF1
:1004E0000E949C1D80916204982F9450923008F4D1
:1004F00086C1873009F4B1C1863009F466C10E9413
:10050000931D6B017C010E94D9150E94601080919F
:100510006204873009F0EDCE10920E0280916604DD
:10052000823009F487C7833008F000C2882309F0BD
:10053000E3C60E94673D80910B018E7F80930B0183
:10054000109267040E94433C84E10E94A12484E14C
:100550000E9484240E94931D9B01AC01609372044D
:1005600070937304809374049093750480916A046B
:1005700090916B04A0916C04B0916D04281B390B11
:100580004A0B5B0B23339FEE390792E0490790E05B
:10059000590708F48FCF709266048CCF0E94931D88
:1005A000681979098A099B09683CA2E17A07A0E0E9
:1005B0008A07A0E09A0708F484CE109308021093EB
:1005C000090210930A027DCE853009F4E2C086301C
:1005D00008F4BAC080912F04813009F481C38130BE
:1005E00008F0A1C280E00E94A12480E00E9484243F
:1005F0000E94673D109308021093090210930A02AB
:100600008FEF0E948E3C809109020E94A23C809153
:100610000A020E94B63C449A459A809162047CCEBC
:100620008D3089F18D30D0F08E3009F075CE80910B
:100630006604882309F068C10E94734770926604BB
:10064000709229051092FE048091620465CE0E948A
:10065000433C0E944A3C809162045ECE80916604D5
:10066000813009F415C6813008F0C0C10E9473477B
:1006700084E08093FC0493E09093FB046092660412
:100680008091620449CE80916604813009F423C3CD
:10069000813008F0E8C10E9473470E94433C8AE021
:1006A0000E9484248AE00E94A124709266048091B2
:1006B00062041A82198230CE80916604823009F475
:1006C0006EC6833008F075C1882309F493C6813063
:1006D00009F001CF0E94433C8AE00E9484248AE012
:1006E0000E94A124609266040E94931D60936A0494
:1006F00070936B0480936C0490936D0480916204FA
:100700000BCE70920E0280918005813009F0E3CE0D
:100710000E94A52580916204FFCD809166048130FE
:1007200009F4BBC2813008F01DC20E94931D609382
:100730006A0470936B0480936C0490936D047092C0
:10074000660480916204E8CD80910B018E7F8093D6
:100750000B0180910B018D7F80930B0180910B0128
:100760008B7F80930B01A39880910B018F7E8093E8
:100770000B0180910B018F7D80930B0180910B0108
:100780008F7B80930B0180910B018F7780930B01FE
:1007900091CE809108020E948E3C809109020E94B5
:1007A000A23C80910A020E94B63C0E94433C89E12F
:1007B0000E94842489E10E94A12480916204ACCD2E
:1007C0000E94433C80916204A7CD80912F04813028
:1007D00009F095CE90912303923008F090CE90913D
:1007E0002803992311F00C943F0CFEEFF0930802BC
:1007F0001093090210930A028093280380CE0E946E
:10080000AC57B2010E940E57EB85FC85E80FF91F2B
:10081000EF77F070FC87EB8780912803813009F433
:1008200002C6813008F0F5C48B858095809308025C
:10083000709228032B853C852032310508F015C2C3
:10084000809109028F3F09F45ACE80910A028F3FAE
:1008500009F455CE1093080252CE809194009091E5
:1008600095000E94B1570E94AC57B2010E940E57EA
:100870007C01AB85BC85EA0EFB1EBFE7EB22FF24A3
:100880008E2D809580930802809194009091950020
:100890000E94B1570E94AC57B2010E940E576C01E2
:1008A000CE0CDF1CEFE7CE22DD248C2D80958093CB
:1008B000090280919400909195000E94B1570E9486
:1008C000AC57B2010E940E578C0D9D1D8F77907012
:1008D0009C878B878B85809580930A0280919400FA
:1008E000909195000E94B1570E94AC57B1010E94AF
:1008F0000E578032910508F0C9C1109308020E947A
:10090000931D4B015C01FBCD813009F0E4CD0E94C9
:100910005A480E94AB53813009F494C70E94B353E4
:10092000813009F45DC780916204F6CC843009F40B
:1009300044C6843008F4FBC5853009F0BBCD0E9465
:10094000673D80910B018F7B80930B0180910B01A0
:100950008F7780930B010E94931D9B01AC016093E4
:10096000720470937304809374049093750480915F
:100970006A0490916B04A0916C04B0916D04281BE3
:10098000390B4A0B5B0B2B329CE1390790E049078E
:1009900090E0590708F48ECD0E94931D60936A047D
:1009A00070936B0480936C0490936D0410926604B2
:1009B00081CD833009F4DBC4843009F08CCD0E94F2
:1009C0005A486091890470918A0480918B049091B7
:1009D0008C042B813C814D815E810E94455687FDB0
:1009E000A2CF80E00E94842480E07ACE823009F495
:1009F0001AC4833009F06FCD0E945A480E94AB534D
:100A0000813009F090CF0E94B353813009F08BCF31
:100A10009091FD04992311F00C94F60D8093FD0440
:100A20008FEF0E94B63C8FEF0E948E3C80E80E94C0
:100A3000A23C0E94B653282F30E03A83298380914C
:100A4000FB04882311F00C94EC0D8091FC0490E0E1
:100A500001978217930709F4C7C48FEF0E94A2532E
:100A60008091620459CC823009F035CD0E945A48F9
:100A70000E94AB53813009F45BC60E94B3538130AE
:100A800009F051CF0E94B65389819A818730910530
:100A900008F4A9C78FEF0E948E3C8FEF0E94A23C02
:100AA0008FEF0E94B63C809162041A82198234CC86
:100AB000823009F038CF0E94931D9B01AC018091D8
:100AC0006E0490916F04A0917004B0917104281B82
:100AD000390B4A0B5B0B273CB2E13B07B0E04B07FD
:100AE000B0E05B0708F41FCF109281040E94931DB1
:100AF00060936E0470936F048093700490937104FC
:100B00000E94931D60937204709373048093740425
:100B1000909375041092800480E061E00E94CA3CCA
:100B200080916204F9CB823009F0D5CC80913004F9
:100B3000882309F4D0CC0E94803D609121037091FC
:100B400022038EEF9FE00E9417580E94673D8AEAB9
:100B500061E00E94B01B1092300410922F0480912B
:100B60006204DACB823009F0B6CC80917F0488230E
:100B700009F0B1CC70927F040E94EB308091620446
:100B8000CBCB823009F054CC0E94931D9B01AC0169
:100B900080916A0490916B04A0916C04B0916D04F3
:100BA000281B390B4A0B5B0B2A39E7E73E07E1E0CC
:100BB0004E07E0E05E0708F43BCC84E10E94A124EC
:100BC00084E10E9484240E94931D60936A047093C0
:100BD0006B0480936C0490936D0470926604809112
:100BE0008104813009F029CC0E94673D0E94AC57F6
:100BF000B1010E940E578036910508F452C510933A
:100C000008020E94AC57B1010E940E578036910530
:100C100008F444C5109309020E94AC57B1010E9428
:100C20000E578036910508F436C510930A020E94CB
:100C3000AC5768EC70E00E940E579C878B8782331C
:100C4000910508F01FC5109308028FEF0E948E3C9B
:100C5000809109020E94A23C80910A020E94B63C47
:100C6000609281048091620457CB2034310508F0F2
:100C7000C9C3809108028F3F09F441CC80910A02D8
:100C80008F3F09F43CCC1093090239CC8034910594
:100C900008F0D6C41093090232CE0E94931D9B0126
:100CA000AC0180916A0490916B04A0916C04B091A6
:100CB0006D04281B390B4A0B5B0B2E31ABE43A0752
:100CC000A0E04A07A0E05A0708F42DCE609266041F
:100CD0008091620421CB809129050E94A253F6CF16
:100CE0000E94803D809108020E948E3C8091090202
:100CF0000E94A23C80910A020E94B63C449845980A
:100D000080913204882309F40ECE1092320480912F
:100D1000650261E00E94B01B8091660261E00E9462
:100D2000B01B809135029091360261E00E94B01BA9
:100D30008091350290913602892F61E00E94B01BAC
:100D40008091670261E00E94B01B8091680261E0BF
:100D50000E94B01B8091390290913A0261E00E949A
:100D6000B01B8091390290913A02892F61E00E9474
:100D7000B01B8091690261E00E94B01B80916A0201
:100D800061E00E94B01B80913D0290913E0261E0C3
:100D90000E94B01B80913D0290913E02892F61E03C
:100DA0000E94B01B80916B0261E00E94B01B809199
:100DB0006C0261E00E94B01B80914102909142025E
:100DC00061E00E94B01B8091410290914202892F04
:100DD00061E00E94B01B80916D0261E00E94B01B37
:100DE00080916E0261E00E94B01B8091450290915B
:100DF000460261E00E94B01B80914502909146023C
:100E0000892F61E00E94B01B80916F0261E00E9417
:100E1000B01B8091700261E00E94B01B809149027A
:100E200090914A0261E00E94B01B8091490290912A
:100E30004A02892F61E00E94B01B8091710261E03B
:100E40000E94B01B8091720261E00E94B01B8091F1
:100E50004D0290914E0261E00E94B01B80914D02C4
:100E600090914E02892F61E00E94B01B8091730225
:100E700061E00E94B01B8091740261E00E94B01B8F
:100E8000809151029091520261E00E94B01B8091CA
:100E9000510290915202892F61E00E94B01B809113
:100EA000750261E00E94B01B8091760261E00E94B1
:100EB000B01B809155029091560261E00E94B01BD8
:100EC0008091550290915602892F61E00E94B01BDB
:100ED0008091770261E00E94B01B8091780261E00E
:100EE0000E94B01B8091590290915A0261E00E94C9
:100EF000B01B8091590290915A02892F61E00E94A3
:100F0000B01B8091790261E00E94B01B80917A024F
:100F100061E00E94B01B80915D0290915E0261E0F1
:100F20000E94B01B80915D0290915E02892F61E06A
:100F30000E94B01B80917B0261E00E94B01B8091F7
:100F40007C0261E00E94B01B80916102909162027C
:100F500061E00E94B01B8091610290916202892F32
:100F600061E00E94B01B80913C0461E00E94B01BD4
:100F700080913D0461E00E94B01B80913E0461E0DD
:100F80000E94B01B80913F0461E00E94B01B8091E1
:100F9000400461E00E94B01B8091410461E00E9426
:100FA000B01B8091330461E00E94B01B8091620409
:100FB00061E00E94B01B8091030190E0807290700C
:100FC0009595879595958795959587959595879509
:100FD0009595879561E00E94B01B8091230361E0A5
:100FE0000E94B01B6091890470918A0480918B04E7
:100FF00090918C0420E030E44FE054E40E9450567D
:101000000E940955862F61E00E94B01B60918904FF
:1010100070918A0480918B0490918C0420E030E4DC
:101020004FE054E40E9450560E940955872F61E01A
:101030000E94B01B6091910470919204809193047E
:10104000909194040E940955862F61E00E94B01B84
:101050006091910470919204809193049091940412
:101060000E940955872F61E00E94B01B6091950492
:101070007091960480919704909198040E9409556C
:10108000862F61E00E94B01B6091950470919604D8
:1010900080919704909198040E940955872F61E0F0
:1010A0000E94B01B6091E1027091E2028091E30224
:1010B0009091E4020E940455862F61E00E94B01BCB
:1010C0006091E1027091E2028091E3029091E4026A
:1010D0000E940455872F61E00E94B01B6091E102DD
:1010E0007091E2028091E3029091E4020E94045523
:1010F00061E00E94B01B6091E1027091E202809178
:10110000E3029091E4020E940455892F61E00E945D
:10111000B01B6091DD027091DE028091DF02909140
:10112000E0020E940455862F61E00E94B01B60918E
:10113000DD027091DE028091DF029091E0020E9458
:101140000455872F61E00E94B01B6091DD02709111
:10115000DE028091DF029091E0020E94045561E07E
:101160000E94B01B6091DD027091DE028091DF026F
:101170009091E0020E940455892F61E00E94B01B0B
:10118000809107039091080395958795959587958C
:1011900061E00E94B01B8091050390910603959534
:1011A00087959595879561E00E94B01B80916204B8
:1011B0004CE050E05A834983AFC80E94931D9B01C5
:1011C000AC0180916A0490916B04A0916C04B09181
:1011D0006D04281B390B4A0B5B0B2E33B6E93B071A
:1011E000B0E04B07B0E05B0708F422C980E00E9442
:1011F000A12480E00E9484240E94931D60936A04CD
:1012000070936B0480936C0490936D0460926604F9
:101210000FC9823009F00ECB8B85809580930A022E
:101220001092280307CB0E945A480E94AB5381308A
:1012300009F43DC30E94B353813009F074CB9091FF
:10124000FD04992309F02DC38093FD048FEF0E94C4
:101250008E3C0E94B653E82FF0E0FA83E983809138
:10126000FB0490E08E179F0709F05DCB8FEF0E9483
:10127000B63C8FEF0E948E3C80E80E94A23C8FEF2C
:101280000E94A253F3E0F09366048091620444C884
:101290000E945A480E94AB53813009F472C20E94E6
:1012A000B353813009F03FCB9091FD04992309F0AD
:1012B00003C38093FD048FEF0E94B63C8FEF0E9422
:1012C0008E3C80E80E94A23C0E94B653A82FB0E05A
:1012D000BA83A983AF3FB10509F025CB60926604BC
:1012E0008FEF0E94B63C8FEF0E948E3C8FEF0E94E2
:1012F000A23C8091620410C8813009F0DBC80E94D2
:10130000673D80910B018B7F80930B0110926804E5
:101310000E94433C8FE00E94A1248FE00E9484241D
:101320008091770290917802A1E080399A070CF4BD
:101330008EC18091790290917A02B1E080399B0749
:101340000CF485C18091750290917602E1E08039BC
:101350009E070CF47CC180917B0290917C02F1E0AD
:1013600080399F070CF473C110926704A3C80E94D0
:101370005A486091890470918A0480918B049091FD
:101380008C042B813C814D815E810E9495541816FE
:101390000CF4C9CA80E00E94842480E0A1C90E94A4
:1013A0005A480E94AB53813009F49EC20E94B35345
:1013B000813009F4B5C20E94931D9B01AC0180915C
:1013C0006A0490916B04A0916C04B0916D04281B89
:1013D000390B4A0B5B0B2D3C6BEB360760E0460785
:1013E00060E0560708F49FCA709266048091620418
:1013F0000C948C010E947347709266048091620481
:101400000C948C012036310508F079C880910802CF
:101410008F3F09F474C8809109028F3F09F46FC8A7
:1014200010930A026CC88B858095809309026092A4
:10143000280300CA0E94673D80910B018F7E809334
:101440000B010E94473C0E94931D9B01AC016093DD
:101450007204709373048093740490937504809164
:101460006A0490916B04A0916C04B0916D04281BE8
:10147000390B4A0B5B0B23339FEE390792E0490788
:1014800090E0590708F0E3C18091030184FF8AC10D
:1014900010926804809169048F5F8093690485319C
:1014A00008F0C5C220917702309178024091750210
:1014B0005091760261E0423C5607ACF481E0233C57
:1014C00038078CF08091790290917A02A1E0833CF8
:1014D0009A074CF080917B0290917C02B1E0833CB2
:1014E0009B070CF09DC380917B0290917C02E1E010
:1014F000823C9E070CF02FC1F1E0433C5F070CF4E7
:101500002AC141E0233C34070CF42AC180917902BE
:1015100090917A0251E0833C95070CF089C38FE0EB
:101520000E9484248BEF0E94A1240C945A020E94F2
:10153000673D80910B018F7B80930B010E94931D6F
:101540009B01AC01609372047093730480937404E4
:101550009093750480916A0490916B04A0916C043F
:10156000B0916D04281B390B4A0B5B0B2D3C96E6A2
:10157000390794E0490790E0590708F495C0809135
:10158000C9029091CA02A3E08A379A0708F498C06A
:1015900083EF0E94A12483EF0E9484240E94931D64
:1015A00060936A0470936B0480936C0490936D0451
:1015B000B4E0B09366040C945A020E94673D809197
:1015C0000B018F7B80930B0180910B018F778093B0
:1015D0000B010E94931D9B01AC01609372047093F8
:1015E0007304809374049093750480916A049091BD
:1015F0006B04A0916C04B0916D04281B390B4A0B4D
:101600005B0B2F3895E2390790E0490790E05907C6
:1016100010F40C945A0284E10E94A1248CEE0E94E2
:1016200084240E94931D60936A0470936B048093DA
:101630006C0490936D04A5E0A09366040C945A0288
:101640008036910508F05BC910930A0258C9809151
:1016500067048F5F809367048B3010F40C945A02F8
:1016600010926804109269040E94931D60936A04AA
:1016700070936B0480936C0490936D046092660485
:101680000C945A028436910508F05DC0109309024B
:1016900080910802DBCA80930A02C9CA80930902BA
:1016A000BBCA80930802ADCA8091030184FF02C0C7
:1016B0000C945A02109269041092680460926604B5
:1016C0000E94931D60936A0470936B0480936C0472
:1016D00090936D040C945A02709281040E94931DA1
:1016E00060936E0470936F04809370049093710400
:1016F0000C945A028091800460E00E94CA3C809160
:1017000080048F5F80938004883018F010928004EA
:1017100080E061E00E94CA3C0E94931D60937204C5
:101720007093730480937404909375040C94400236
:1017300080936604809129058F3F09F451C18F5F22
:10174000809329059AC98639910510F410930A02ED
:10175000809108027BCA61E0233C36070CF0DFCEA3
:101760008091790290917A02A1E0833C9A070CF46F
:10177000AFC08BEF0E9484248FE00E94A1240C94C0
:101780005A028091FB04482F50E02091FC0430E085
:1017900021503040421753070CF0A2C08F5F0E94C7
:1017A000A2537DCD10926904209177023091780286
:1017B000E1E0233C3E070CF45FC0809179029091F8
:1017C0007A02F1E0833C9F070CF456C080916804D4
:1017D0008F5F809368048B3F08F468CE0C94CB0233
:1017E0000E94B653282F30E03A832983909129052F
:1017F000492F50E04217530709F446C1973009F4C6
:1018000070C129813A81215030404217530709F4B1
:1018100089C1933009F4AEC1943008F01DC19130F4
:1018200009F4C6C1923008F465C18FEF0E948E3C66
:101830008BEE0E94A23C8FEF0E94B63C8091620426
:101840000C948C01809129050E94A25367C88CEEEC
:101850000E94A1248CEE0E9484240E94931D609318
:101860006A0470936B0480936C0490936D04A4E0FD
:10187000A09366040C945A021092680417CE91301B
:1018800009F445C1923011F00C947F0210930802C4
:10189000109309023EEF30930A02109228030C9431
:1018A0007F021092FD048BEE0E948E3CD2CC809180
:1018B000FB040E94A253BECC1092FD048FEF0E9445
:1018C000B63C8FEF0E948E3C8BEE0E94A23CFCCC7B
:1018D0008FE00E94A1248FE00E9484240C945A027D
:1018E00080E00E94A253DBCC6091F6047091F70473
:1018F000882777FD8095982F0E94375524EB39E58E
:1019000045E35FE30E9450560E940955862F60937D
:10191000FA040E94A2530E94B353813009F04BCDC8
:101920000E94931D60936A0470936B0480936C040F
:1019300090936D040E94B65390E0FC01BF0188278C
:1019400077FD8095982F0E94375526EA3BE944EBB6
:101950005FE30E9450560E9404557093F504609313
:10196000F4040E94BB53809314020E94473C809170
:1019700014020E94BE539C019093F7048093F604D6
:1019800097FDF1C08091F4049091F50444EB50E090
:10199000481B590BCA01820F931F9093F90480933F
:1019A000F804853B910534F0885691409093F904F2
:1019B0008093F8045FEF8C34950734F488599E4F78
:1019C0009093F9048093F80409968331910508F007
:1019D0006CC080E00E94842480E00E94A124EBCCB3
:1019E000109229054AC801969A838983843091050B
:1019F00009F42BC18530910508F09AC08230910519
:101A000009F432C18330910509F42CC180E00E94B1
:101A10008E3C8FEF0E94A23C8FEF0E94B63C8091DB
:101A20006204E1E0F0E0FA83E9830C948C0180E049
:101A30000E94842480E00E94A1240E94931D609350
:101A40006A0470936B0480936C0490936D04B3E00C
:101A5000B09366040C945A02953009F4A7C09530EF
:101A600008F4A2C0963009F492C0973011F00C949B
:101A700093048BEE0E948E3C8BEE0E94A23C8BEE78
:101A80000E94B63C0C9493048091FE048F5F809377
:101A9000FE04843008F4BDCE1092FE04973008F0A6
:101AA000CFC09F5F90932905B4CE0E94A01D809166
:101AB000F8049091F904181619060CF07BC089EF10
:101AC0000E94842487E00E94A12464E0609366045D
:101AD0008CEE91E5A8EBBDE38B839C83AD83BE8345
:101AE0006ACC49815A814115510519F61092290590
:101AF0001092FE048FEF0E948E3C8FEF0E94A23C5A
:101B00008FEF0E94B63C809162040C948C0110937C
:101B100008022EEF2093090210930A026092280314
:101B20000C947F02809329051092FE04982F71CEA9
:101B3000A981BA81A630B10509F485C0A630B105E6
:101B400008F461C0A730B10509F060CF80E00E94C1
:101B50008E3C80E00E94A23C80E00E94B63C8091D6
:101B600062040C948C0128593E4F3093F704209363
:101B7000F60408CF8FEF0E948E3C8FEF0E94A23CAC
:101B80008BEE0E94B63C809162040C948C018FEF26
:101B90000E948E3C8BEE0E94A23C8BEE0E94B63CD3
:101BA000809162040C948C018BEE40CE8BEEE3CFDF
:101BB0008BEEA1CF87E00E94842489EF0E94A124AC
:101BC00093E0909366042CEE31E548EB5DEB2B83BC
:101BD0003C834D835E83EFCB90E0019749815A812E
:101BE0008417950711F00C942D05FECB1092FD047F
:101BF0008FEF0E94B63C8FEF0E948E3C8BEE0E94CE
:101C0000A23C0C94190580E00E948E3C8FEF0E944C
:101C1000A23C80E00E94B63C809162040C948C014E
:101C200086EF0E9484248FE00E94A1240C945A0223
:101C30008FE00E94842486EF0E94A1240C945A0213
:101C40001092290557CF8FEF82CF80E00E948E3C03
:101C500080E00E94A23C8FEF0E94B63C809162041B
:101C60000C948C018FEFD0CF8FEFF0CF81E090E01C
:101C700021E00DB407FC0AC0019637E280319307DA
:101C8000C0F3209324030DB407FEF6CF089584B16A
:101C9000807F84B984B1876084B980E58CBD8DB5BF
:101CA00081608DBD08951CBC1DBC0895442309F1BD
:101CB000A62FB72FE82FF92F91E021912EBD21E01B
:101CC00030E00DB407FC0BC02F5F3F4F57E22031CF
:101CD0003507B8F3909324030DB407FEF5CF209198
:101CE0002403222331F42EB52D932E2F281B2417E5
:101CF00020F308956623E9F0E82FF92F91E0219170
:101D00002EBD21E030E00DB407FC0BC02F5F3F4F2C
:101D100047E220313407B8F3909324030DB407FE53
:101D2000F5CF20912403222321F42E2F281B2617E0
:101D300030F308958EBD81E090E021E00DB407FC02
:101D40000AC0019637E280319307C0F32093240341
:101D50000DB407FEF6CF8EB508950F931F93DF9352
:101D6000CF9300D0CDB7DEB7289880E20E949A0EBC
:101D70008DE00E949A0E289A289883E20E949A0E7B
:101D800081E00E949A0E289A80912103909122036B
:101D900099838A831B82289880E30E949A0E8E0181
:101DA0000F5F1F4FC80163E00E947A0E289A28989F
:101DB0008AE20E949A0EC80163E00E947A0E289A75
:101DC000289881E20E949A0E81E00E949A0E289A39
:101DD000289882E20E949A0E81E00E949A0E289A28
:101DE000289884E20E949A0E82E10E949A0E289A14
:101DF000289885E20E949A0E88E20E949A0E289AFC
:101E0000289881E30E949A0E8DE00E949A0E289AEB
:101E1000289880E50E949A0E83E70E949A0E289ADD
:101E200028988CE30E949A0E81E00E949A0E289ACC
:101E300028988DE30E949A0E86E00E949A0E289AB6
:101E4000289880E20E949A0E8FE00E949A0E289AAB
:101E50000F900F900F90CF91DF911F910F910895E8
:101E60002C9A289A0E94AD0E0895CF93DF93EC012F
:101E70002C9828988AE20E949A0ECE0165E00E9472
:101E80007A0E289A2C9ADF91CF910895CF93DF9301
:101E9000EC01289880E30E949A0ECE0165E00E9432
:101EA0007A0E289ADF91CF91089580914705882373
:101EB00011F080E0089528988FEF0E949A0E289ADA
:101EC00080740895DF93CF930F92CDB7DEB7198258
:101ED000289887E10E949A0EBE016F5F7F4FCB0169
:101EE00041E00E94560E289A898181700F90CF910F
:101EF000DF910895289882EE0E949A0E289A0895FC
:101F0000CF93DF93EC01289881E60E949A0ECE01D0
:101F1000BE014DE00E94560E289A289887E20E9442
:101F20009A0E80E40E949A0E289ADF91CF9108952C
:101F3000DF93CF930F92CDB7DEB728988F71806271
:101F400069830E949A0E6981862F0E949A0E289AB0
:101F50000F90CF91DF9108950F931F93DF93CF934D
:101F60000F92CDB7DEB78B0128988F7149830E94FD
:101F70009A0EC801B80149810E94560E289A0F9006
:101F8000CF91DF911F910F9108950F931F93DF93CE
:101F9000CF930F92CDB7DEB78B0128988F718062F7
:101FA00049830E949A0EC8014981642F0E947A0ECB
:101FB000289A0F90CF91DF911F910F9108950F9361
:101FC0001F93DF93CF930F92CDB7DEB78C01809133
:101FD00047058823E1F72C9881E0809347052898EE
:101FE00080E269830E949A0E8AE40E949A0E289ADF
:101FF000289881EE0E949A0E289A289880EA0E94DA
:102000009A0EC80169810E947A0E289A2C9A0F9024
:10201000CF91DF911F910F910895EF92FF920F934F
:102020001F93DF93CF930F92CDB7DEB7182F062FF4
:10203000289881EE99830E949A0E289A289888EA17
:102040000E949A0E9981002361F0612F792F7B0104
:10205000F70181917F010E949A0E8E2D811B8017BE
:10206000B8F3289A0F90CF91DF911F910F91FF90B5
:10207000EF900895289880E60E949A0E8FEF0E94B4
:102080009A0E289A0895DF93CF930F92CDB7DEB7BB
:102090001982289881E10E949A0EBE016F5F7F4FDE
:1020A000CB0141E00E94560E289A89810F90CF9172
:1020B000DF910895289881EE0E949A0E289A08953B
:1020C000FF920F931F93DF93CF930F92CDB7DEB79D
:1020D00080914705882339F00F90CF91DF911F91B0
:1020E0000F91FF90089528988FEF0E949A0E289ADA
:1020F00086FFF2CF80912303826080932303289888
:1021000087E20E949A0E80E70E949A0E289A19820E
:10211000289887E10E949A0EBE016F5F7F4FCB0126
:1021200041E00E94560E289A898180FDD5CF2898DB
:1021300081E60E949A0E8CE999E0BC014DE00E9474
:10214000560E289A289887E20E949A0E80E40E94F0
:102150009A0E289A289882EE0E949A0E289A8091C8
:102160002503813009F44BC140919C09242F44235D
:1021700009F09CC150919D09E52F552309F410C227
:1021800000919E0980918005882341F57091A009F6
:10219000272F30E02F7730703093200320931F03D8
:1021A0006091A109862F90E08F77907090931E0325
:1021B00080931D0377FD03C0309521953F4F3093E9
:1021C00006032093050367FD03C0909581959F4FFB
:1021D0009093080380930703242FE52F30E030937A
:1021E000850920938409F0E0F0938709E09386093C
:1021F00010E01093890900938809922F8827821B89
:10220000930B24E630E0B9010E94FA56F62EF094C2
:10221000F09208025E2F44274E1B5F0BCA01B901E2
:102220000E94FA56609560930A02502F4427401B83
:10223000510BCA01B9010E94FA56609560930902D8
:102240008F2D0E948E3C809109020E94A23C8091B9
:102250000A020E94B63C80919F0980FF59C14498B0
:1022600081FF54C14598982F82FF4DC121E02093F2
:102270000E0284FDA2C186FF43C181E080938604E3
:1022800097FDC7C1109287048091A20980FF32C1D7
:1022900080910B018E7F80930B018091A20981FFB9
:1022A00023C180910B018D7F80930B018091A20946
:1022B00082FF14C180910B018B7F80930B01809171
:1022C000A20983FF09C1A3988091A20984FFFEC0DF
:1022D00080910B018F7E80930B018091A20985FF75
:1022E000EFC080910B018F7D80930B018091A2093B
:1022F00086FFE0C080910B018F7B80930B01809162
:10230000A20987FD80C180910B01806880930B0139
:1023100080916204883009F458C18091070280934B
:10232000D408853009F479C1863008F4F3C08630CA
:1023300009F435C2873009F062C06091E102709102
:10234000E2028091E3029091E4020E9404556093BE
:10235000D5087093D6088093D7089093D8086091D9
:10236000DD027091DE028091DF029091E0020E9416
:1023700004556093D9087093DA088093DB08909332
:10238000DC086091890470918A0480918B0490919B
:102390008C0460938D0470938E0480938F049093CB
:1023A000900420E030E44FE054E40E9450560E9434
:1023B0000455262F2093DD087093DE086091910468
:1023C0007091920480919304909194040E94095515
:1023D0006093DF087093E008609195047091960413
:1023E00080919704909198040E9409556093E108A8
:1023F0007093E2081092E30883E080930702289824
:1024000081EE0E949A0E289A289888EA0E949A0ED5
:102410008091D4080E949A0E8091D5080E949A0E4D
:102420008091D6080E949A0E8091D7080E949A0E39
:102430008091D8080E949A0E8091D9080E949A0E25
:102440008091DA080E949A0E8091DB080E949A0E11
:102450008091DC080E949A0E8091DD080E949A0EFD
:102460008091DE080E949A0E8091DF080E949A0EE9
:102470008091E0080E949A0E8091E1080E949A0ED5
:102480008091E2080E949A0E8091E3080E949A0EC1
:10249000289A0F90CF91DF911F910F91FF9008958F
:1024A0008CE30E94271D40919C09242F50919D0987
:1024B000E52F66CE80910B01806480930B011FCFC6
:1024C00080910B01806280930B0110CF80910B01F2
:1024D000806180930B0101CFA39AF6CE80910B010E
:1024E000846080930B01EBCE80910B01826080931E
:1024F0000B01DCCE80910B01816080930B01CDCE6E
:1025000010928604BDCE10920E02B3CE459AABCE89
:10251000449AA6CE833009F4DCC0843009F06FCF32
:1025200090916D0280916E029093D5088093D608A9
:1025300090917502809176029093D7088093D80885
:1025400090917702809178029093D9088093DA086D
:102550009091790280917A029093DB088093DC0855
:1025600090917B0280917C029093DD088093DE083D
:1025700090913C0480913D049093DF088093E008A3
:1025800090913E0480913F049093E1088093E2088B
:10259000809133048093E30885E0809307022FCF76
:1025A00000919E09002309F04CC180919F09883059
:1025B00009F449C1E02F202FE5CD0E9487400E94F9
:1025C000A01D90919F09892F56CE80918005882368
:1025D00009F0A3CE8091A30980FF9FCE0E9487407F
:1025E0008FEF93E0909376028093750290937C0234
:1025F00080937B0286E08093730B81E08093CD080B
:10260000809380058ACE80910B018F7780930B0198
:102610007FCE81E08093870437CE80913502909100
:1026200036028093D50880913502909136029093BE
:10263000D6088091390290913A028093D708809110
:10264000390290913A029093D80880913D0290917E
:102650003E028093D90880913D0290913E02909372
:10266000DA0880914102909142028093DB088091C8
:102670004102909142029093DC088091490290912E
:102680004A028093DD088091490290914A0290931A
:10269000DE0880914D0290914E028093DF08809178
:1026A0004D0290914E029093E008809151029091DA
:1026B00052028093E10880915102909152029093CE
:1026C000E208809162048093E30886E08093070229
:1026D00096CE90916502809166029093D508809382
:1026E000D60890916702809168029093D7088093F2
:1026F000D8089091690280916A029093D9088093DA
:10270000DA0890916B0280916C029093DB088093C1
:10271000DC0890916F02809170029093DD088093A5
:10272000DE0890917102809172029093DF0880938D
:10273000E00890917302809174029093E108809375
:10274000E20830910301809103012091030190E0A0
:1027500080729070959587959595879595958795B5
:102760009595879595958795880F991F221F222704
:10277000221F220F220F282B832F90E08071907050
:102780009595879595958795959587959595879531
:10279000282B2093E30884E08093070230CE8091B9
:1027A0004502909146028093D50880914502909110
:1027B00046029093D60880915502909156028093DC
:1027C000D70880915502909156029093D808809135
:1027D000590290915A028093D908809159029091A0
:1027E0005A029093DA0880915D0290915E02809384
:1027F000DB0880915D0290915E029093DC088091ED
:102800006102909162028093DD0880916102909153
:1028100062029093DE08909140048091410490936D
:10282000DF088093E0089091C9028091CA029093DA
:10283000E1088093E2081092E30887E080930702A2
:10284000DECD252F9FCC8091A009882309F0B2CE40
:102850008091A109882309F423CEE0E020E092CC06
:1028600081E08093250383E08093260308951092EE
:1028700025030895809126038093D40890919C09A4
:10288000891741F00E9460108091260390919C0965
:102890009817C1F71092D4088F3F21F08F5F809373
:1028A0002603089583E080932603089583E08093B0
:1028B00026030895CF93DF93C8E6D0E01882ACE6F4
:1028C000B0E01C92E0EBF0E010821092B1001092A8
:1028D00070008881826088838C9180688C9380816D
:1028E00082608083DF91CF9108951F920F920FB67F
:1028F0000F9211248F9380910E02882321F18091F1
:10290000030186FD20C0809168008D7F8093680060
:1029100080916C008F7780936C0081E080930F0230
:102920008DE08093B3008091B10086608093B10008
:102930008091700082608093700010922C0210923F
:102940002D0210922E028F910F900FBE0F901F90AC
:1029500018951F920F920FB60F9211242F933F9349
:102960004F935F938F939F938091B100887F809363
:10297000B10080910F028823A9F08091030186FFA6
:1029800065C08091680082608093680080916C00CF
:10299000806880936C008FEF9FEF9093020280938A
:1029A000010249C080910102909102022FEF8F3FF6
:1029B000920709F463C08130910509F498C09C0125
:1029C000225030402530310508F467C09C01275063
:1029D00030402630310508F0BDC026E32093B30017
:1029E0002091B10026602093B100209170002260F8
:1029F000209370002091030130E020743070002497
:102A0000220F331F001C220F331F001C232F302DD9
:102A10004CE050E0481B590B02C0220F331F4A956F
:102A2000E2F740912C02420F40932C0201969093C2
:102A30000202809301029F918F915F914F913F918C
:102A40002F910F900FBE0F901F90189510920F02AC
:102A500083E38093B3008091B10086608093B100DE
:102A6000809170008260809370008091010290914B
:102A700002022FEF8F3F9207C9F6DDCF20910301AD
:102A800026FF52C0209168002260209368002091A8
:102A90006C00206820936C00CECF26E32093B30017
:102AA0002091B10026602093B10020917000226037
:102AB000209370002091030130E0207430700024D6
:102AC000220F331F001C220F331F001C232F302D19
:102AD00046E050E0481B590B02C0220F331F4A95B5
:102AE000E2F740912D02420F40932D029FCF20919B
:102AF000030130E020743070022E232F000C221FBF
:102B0000330B000C221F331F20932E0226E3209349
:102B1000B3002091B10026602093B1002091700095
:102B200022602093700082CF8CE18093B30080916B
:102B3000B10086608093B1008091700082608093C4
:102B4000700010922C0210922D0210922E0281E041
:102B500090E06DCF8D30910509F068CF1092700034
:102B60008091680082608093680080916C0080682A
:102B700080936C008FEF9FEF90930202809301028D
:102B800080912E028093000280912D0280932A0270
:102B900080912C0280932B0281E0809334044BCFF0
:102BA00080910002089580912A02089580912B025D
:102BB000089580910E02882321F0809134048823A7
:102BC00009F40895109234040E94931D2091370453
:102BD000309138044091390450913A04621B730BD0
:102BE000840B950B633827E0720720E0820720E012
:102BF000920738F30E94931D609337047093380452
:102C00008093390490933A04E0912B02E0933304CB
:102C1000F0E0E533F105A8F02091050330910603BB
:102C2000809107039091080337FDB3C130932003CF
:102C300020931F0397FDA5C190931E0380931D034E
:102C40000895EE58FF4FEE0FFF1F0590F491E02D11
:102C50001994809386041092870420910503309183
:102C600006038091070390910803DECF109286043B
:102C700081E08093870420910503309106038091C1
:102C8000070390910803D0CF8091360490E001961D
:102C90008370907080933604823041F3833009F45E
:102CA0008CC18130B1F21092860410928704209179
:102CB0000503309106038091070390910803B4CF78
:102CC000109286042091050330910603809107033A
:102CD00090910803A9CF8091070390910803029770
:102CE00090930803809307032FEF813892079CF598
:102CF00081E89FEF909308038093070320910503D9
:102D00003091060391CF2091050330910603809105
:102D10000303909104032817390724F02091070337
:102D2000309108032250304030930603209305036E
:102D3000C90130930803209307034FEF213834076C
:102D400034F441E85FEF50930603409305034FEFDF
:102D5000213834076CF2209105033091060364CFCB
:102D600081E08093860420910503309106038091D1
:102D700007039091080358CF209105033091060373
:102D80002250304030930603209305034FEF213843
:102D900034070CF045CF81E89FEF909306038093B2
:102DA000050380910703909108032FE730E03ECFA1
:102DB00020910503309106032250304030930603E2
:102DC0002093050380910703909108030296909346
:102DD0000803809307034FEF2138340734F421E8C8
:102DE0003FEF3093060320930503803891050CF4E0
:102DF0001BCF8FE790E0909308038093070314CFD5
:102E00001092060310920503109208031092070314
:102E100080916204883009F4D6C080E090E020E020
:102E200030E004CF20910503309106032E5F3F4F21
:102E300030930603209305038091070390910803C4
:102E4000029790930803809307032038310534F0EC
:102E50002FE730E030930603209305034FEF8138CE
:102E600094070CF0E1CE81E89FEF909308038093E4
:102E70000703DACE8091070390910803029690939E
:102E8000080380930703803891050CF464CF8FE723
:102E900090E090930803809307035DCF2091050392
:102EA00030910603809107039091080382179307DE
:102EB0000CF473C09C012E5F3F4F309306032093A8
:102EC0000503029690930803809307032038310589
:102ED00034F02FE730E03093060320930503803869
:102EE00091050CF438CF8FE790E09093080380931E
:102EF0000703209105033091060396CE2091050328
:102F0000309106032E5F3F4F309306032093050355
:102F1000203831050CF484CE8FE790E090930603BF
:102F20008093050380910703909108032FE730E019
:102F30007DCE8091350490E0019665E070E00E94BE
:102F40000E5780933504882351F5449A459A109280
:102F50000A028FEF80930902809308020E948E3C40
:102F6000809109020E94A23C80910A020E94B63C14
:102F70002091050330910603809107039091080387
:102F800053CE909581959F4F90931E0380931D0380
:102F90000895309521953F4F49CEC9018CCF81309E
:102FA00079F18230A9F18330F1F18FEF80930A0239
:102FB0008093090280930802D1CF81E08093860438
:102FC0008093870429CE0E9487408FEF93E09093EF
:102FD00076028093750290937C0280937B0286E058
:102FE0008093730B81E08093CD08809380052091BE
:102FF000050330910603809107039091080314CED6
:103000008FEF80930A021092090280930802A6CFE4
:10301000449845988FEF80930A028093090210929A
:10302000080280E09BCF10920A02109209021092CF
:10303000080280E093CF0895CF92DF92EF92FF9243
:103040000F931F93CF93DF93FC01808191810097B1
:1030500009F4ADC0C091390BD0913A0BD093D3088D
:10306000C093D2088081918197FDCAC02091FF0250
:1030700030910003DC01A21BB30BB0933A0BA09379
:10308000390B80911703909118038A0F9B1F90931F
:1030900018038093170326E0813492070CF49DC037
:1030A00080E496E0909318038093170310ECC12EF0
:1030B00012E1D12EE12CF12C008111819D01220F12
:1030C000331FCD01880F991F880F991F880F991FF3
:1030D000280F391F442737FD4095542FB801660F3C
:1030E000771F660F771F660F771F882777FD8095FC
:1030F000982F260F371F481F591FAC1BBD0BAA0F57
:10310000BB1FBD01CB01AA2797FDA095BA2F280FA1
:10311000391F4A1F5B1F2C0D3D1D4E1D5F1D209347
:103120000D0330930E0340930F035093100357FD8C
:103130007CC012161306140615060CF083C017FD8A
:103140009DC0213C7DE5370770E0470770E05707D9
:103150000CF478C080EC9DE5A0E0B0E080930D0316
:1031600090930E03A0930F03B09310032CED35E062
:10317000318320838091F5029091F602181619068A
:103180000CF077C02F5F3F4F3183208362E0203007
:103190003607D4F08FEF91E091838083DF91CF9158
:1031A0001F910F91FF90EF90DF90CF9008951092B4
:1031B00018031092170310923A0B1092390B1092C9
:1031C000D3081092D208EACF7EEF2130370734F7C8
:1031D00081E09EEF91838083E1CF69EF803C960789
:1031E000D4F480EC99EF909318038093170360E474
:1031F000C62E6DEED62E6FEFE62E6FEFF62E5CCF5D
:10320000A091FF02B0910003A80FB91FB0933A0B31
:10321000A093390B36CF6C01CC0CDD1CC80ED91E27
:10322000EE24D7FCE094FE2C47CF17FD0BC0109284
:103230000D0310920E0310920F031092100320E062
:1032400030E0A901203482EA38078FEF48078FEF7A
:103250005807FCF480E492EAAFEFBFEF80930D03D0
:1032600090930E03A0930F03B093100324E23AEF60
:103270007FCF215030403183208388CF10920D03BF
:1032800010920E0310920F031092100320E030E012
:10329000A90184E055954795379527958A95D1F7EB
:1032A00067CFCF92DF92EF92FF920F931F93CF934E
:1032B000DF93FC0180819181009709F4ADC0C0913A
:1032C0008505D0918605D0939B09C0939A0980818A
:1032D000918197FDCAC02091FD023091FE02DC0170
:1032E000A21BB30BB0938605A093850580911503AF
:1032F000909116038A0F9B1F9093160380931503DA
:1033000026E0813492070CF49DC080E496E090930F
:1033100016038093150310ECC12E12E1D12EE12C7F
:10332000F12C008111819D01220F331FCD01880FE7
:10333000991F880F991F880F991F280F391F44273D
:1033400037FD4095542FB801660F771F660F771F22
:10335000660F771F882777FD8095982F260F371FD8
:10336000481F591FAC1BBD0BAA0FBB1FBD01CB01D2
:10337000AA2797FDA095BA2F280F391F4A1F5B1F58
:103380002C0D3D1D4E1D5F1D209311033093120324
:10339000409313035093140357FD7CC01216130679
:1033A000140615060CF083C017FD9DC0213C7DE579
:1033B000370770E0470770E057070CF478C080ECDF
:1033C0009DE5A0E0B0E08093110390931203A093D9
:1033D0001303B09314032CED35E0318320838091E7
:1033E000F7029091F802181619060CF077C02F5FBB
:1033F0003F4F3183208362E020303607D4F08FEFD7
:1034000091E091838083DF91CF911F910F91FF9085
:10341000EF90DF90CF90089510921603109215034D
:10342000109286051092850510929B0910929A09B8
:10343000EACF7EEF2130370734F781E09EEF9183AA
:103440008083E1CF69EF803C9607D4F480EC99EF5C
:10345000909316038093150360E4C62E6DEED62E6E
:103460006FEFE62E6FEFF62E5CCFA091FD02B091CC
:10347000FE02A80FB91FB0938605A093850536CF2D
:103480006C01CC0CDD1CC80ED91EEE24D7FCE094D8
:10349000FE2C47CF17FD0BC01092110310921203A0
:1034A000109213031092140320E030E0A90120349D
:1034B00082EA38078FEF48078FEF5807FCF480E463
:1034C00092EAAFEFBFEF8093110390931203A093A2
:1034D0001303B093140324E23AEF7FCF215030401E
:1034E0003183208388CF109211031092120310921F
:1034F00013031092140320E030E0A90104E0559575
:103500004795379527950A95D1F767CF85B780619D
:1035100085BF8FEF81B912B897EF94B990EE95B946
:1035200090EF97B990EB98B99CEF9AB993E09BB95B
:103530008DB91EB810BA83BB809165048823E1F071
:103540008130D1F0823051F19FEF909301011092C0
:1035500002019FE0909304018823A9F49091050152
:1035600010920501109207019FEF90930A018823A2
:1035700029F410920B01089514BAE6CF8130C9F3F3
:10358000823041F00895813011F0823059F79093E4
:103590000501E8CF87EF80930B01089598E094BB75
:1035A000D3CF1092B8001092BC000895589A599A3F
:1035B0001092B90081E08093B800089594EA909346
:1035C000BC009091BC0097FFFCCF9091B900987F10
:1035D000983021F0903111F081E008958093BB0084
:1035E00084E88093BC008091BC0087FFFCCF909161
:1035F000B900987F983121F081E0903419F0089556
:1036000080E0089580E0089524EA34E844E92093B6
:10361000BC009091BC0097FFFCCF9091B900987FBF
:10362000983011F0903199F78093BB003093BC0033
:103630009091BC0097FFFCCF9091B900987F903299
:1036400019F0983509F008954093BC009091BC00A2
:1036500094FDFCCFDCCF94EA9093BC009091BC0029
:1036600097FFFCCF9091B900987F983021F090316E
:1036700011F081E008958093BB0084E88093BC0042
:103680008091BC0087FFFCCF9091B900987F983162
:1036900021F081E0903419F0089580E0089580E0F1
:1036A000089584E98093BC008091BC0084FDFCCF28
:1036B00008958093BB0084E88093BC008091BC0097
:1036C00087FFFCCF9091B900987F81E0983209F094
:1036D000089580E0089584EC8093BC008091BC0044
:1036E00087FFFCCF8091BB00089584E88093BC00E5
:1036F0008091BC0087FFFCCF8091BB0008951092A1
:10370000C50080E18093C400E0ECF0E0808182603D
:103710008083E1ECF0E0808188698083E2ECF0E076
:1037200080818660808308951092CD0080E180932F
:10373000CC00E8ECF0E0808182608083E9ECF0E08E
:10374000808188618083EAECF0E0808186608083FC
:1037500008951092C0001092C1001092C200089506
:103760009091C00095FFFCCF8093C600662321F0A6
:103770008091C00086FFFCCF08959091C80095FF0E
:10378000FCCF8093CE00662321F08091C80086FF95
:10379000FCCF08958091C0008095881F8827881FDE
:1037A000089587E990E02091C00027FD07C00197A8
:1037B000D1F781E080932A0380E008958091C600CC
:1037C00008951F920F920FB60F920BB60F9211240D
:1037D0002F933F934F935F936F937F938F939F9319
:1037E000AF93BF93EF93FF939091C60080916204D3
:1037F0008E3009F43FC08F3009F442C080910D0231
:10380000882309F580912F04813009F465C0823046
:10381000F1F440913104442309F474C04130B9F407
:10382000392F20E08091210390912203822B932B4A
:10383000909322038093210340933004109231042B
:1038400040930D0204C010920D0290932F04FF913B
:10385000EF91BF91AF919F918F917F916F915F9108
:103860004F913F912F910F900BBE0F900FBE0F9075
:103870001F9018959A3A59F781E08093EA04E7CFB0
:103880009B3201F19D3291F1973609F043C090913E
:1038900033048091C00085FFFCCF9093C6008091D7
:1038A000C00086FFFCCF90916600909362058091E6
:1038B000C00085FFFCCF9093C6008091C00086FFBA
:1038C000FCCFC5CF809162058F3FD1F08F5F809391
:1038D000620580936600BBCF9A3A31F1953509F0C5
:1038E000B6CF80930D0210922F04B1CF8091620564
:1038F000882321F0815080936205EBCF80E0E9CFEF
:103900008FEFE7CF909321031092220381E0809301
:1039100031049DCF933709F09ACF8DEF9FE06091EE
:1039200062050E94095893CF8093320490CF86B1EC
:1039300066B126B146B130E02870307035952795D4
:103940003595279535952795220F331F70E06470C4
:1039500070707595679575956795260F371F220FBF
:10396000331F50E04270507055954795240F351F16
:10397000220F8170820F0895F89414BC15BC109228
:103980006E0010922001109221018EEF9FE00E94A4
:10399000DB5790932203809321038DEF9FE00E94D9
:1039A000D35780936205982F91509E3FE8F58093FE
:1039B000660080912103909122039C0121583C4094
:1039C0002330310508F5109265040E94AC320E9444
:1039D000861A0E94DC1D0E9416240E94513C0E94FF
:1039E000470E0E94300F80912403882329F4809190
:1039F00023038160809323030E947F1B0E94993DD3
:103A00000E945A14789408952CE08038920721F48B
:103A100081E080936504D9CF2CE084389207A8F226
:103A200082E080936504D1CF609166006093620567
:103A30008DEF9FE00E940958BCCF1F920F920FB6E6
:103A40000F9211240F900FBE0F901F901895CF93D7
:103A5000DF939EE1899FE0011124809168008D7FB2
:103A60008093680080916C008F7780936C00D99A66
:103A700010927A0080917A00806180937A0010928F
:103A80009000109291001092710088B3876088BBFB
:103A90001092A0001092A1001092720089B387606A
:103AA00089BB10928000109281000E94A91B0E9485
:103AB000530E0E94D11A0E94861A83B78F6083BF6B
:103AC00081E0809370008091B0008D7F8093B00082
:103AD0008091B10087608093B100209719F088959C
:103AE0002197E9F713BE8091B100887F8093B100E0
:103AF000109270008091B00082608093B0008FEFD0
:103B0000809308028093090280930A0210920203B4
:103B10001092010310920403109203030E94BC1C34
:103B2000DF91CF91089560915E0470915F04809160
:103B3000600490916104089581E08093CB02089520
:103B400080E090E0DC018093E1029093E202A09398
:103B5000E302B093E4028093DD029093DE02A0932F
:103B6000DF02B093E0028093890490938A04A093CB
:103B70008B04B0938C048093910490939204A0934F
:103B80009304B09394048093950490939604A09327
:103B90009704B09398048093B1049093B204A093D7
:103BA000B304B093B4048093AD049093AE04A09397
:103BB000AF04B093B0040895CF93DF93EAE7F0E049
:103BC0001082ABE7B0E01C92CCE7D0E01882808195
:103BD000866080838881806488838081806280831E
:103BE0008C91887F8C9380818860808380818068BD
:103BF0008083808180648083DF91CF9108951F92BC
:103C00000F920FB60F920BB60F9211241F932F93A2
:103C10003F934F935F936F937F938F939F93AF9354
:103C2000BF93EF93FF9380915E0490915F04A09106
:103C30006004B09161048F3F2FEF92072FEFA2072E
:103C40002FEFB20709F4B8C00196A11DB11D8093F2
:103C50005E0490935F04A0936004B093610480912C
:103C6000780090E040917900342F20E0822B932B54
:103C70002091C502223009F4CAC1233008F44CC097
:103C8000243009F4EEC1243008F033C12091ED0254
:103C90003091EE02280F391F369527953093EE02AA
:103CA0002093ED028091E604823009F04BC08091B0
:103CB0003605813009F4A9C2813008F000C2809134
:103CC0003805813009F412C38091C60290912F0209
:103CD000983008F054C190917B00977F90937B00BF
:103CE00090912F02905C90937C00823009F454C133
:103CF000FF91EF91BF91AF919F918F917F916F91C4
:103D00005F914F913F912F911F910F900BBE0F909C
:103D10000FBE0F901F901895222309F456C0213032
:103D200061F42091EF023091F002280F391F36958F
:103D300027953093F0022093EF028091E6048230C1
:103D400009F4B5CF813009F441C1882309F0BCCF13
:103D50008091C602823009F42CC3833008F0DCC1A4
:103D6000882309F47FC2813009F0B0CF80913102FD
:103D700080932F02809134028093C8021092C50272
:103D800082E08093C6021091E404113009F414C457
:103D9000123009F099CF80913002873109F094CF29
:103DA0001093E60480913805813009F49FC2109287
:103DB000E6048091C6028ACF10925E0410925F04DE
:103DC00010926004109261044ACF609130026E300C
:103DD00009F402C3262F30E0F901EE0FFF1FEB5C60
:103DE000FD4F9183808320FF78C0F901EE0FFF1F04
:103DF000ED5CFD4F80819181F901EE0FFF1FEB5CBF
:103E0000FD4F40815181262F269530E0841B950B74
:103E1000220F331FF901E358FD4F40815181841B6C
:103E2000950BF901EB59FD4F9183808397FDFEC2FD
:103E300044E08130940724F080E094E09183808313
:103E4000603150F48C3391050CF0F5C223533D4F93
:103E5000D90111969C938E9380918704882309F44D
:103E600012C28091750290917602F1E0843A9F0728
:103E7000CCF0809177029091780221E0843A920709
:103E80008CF08091790290917A0241E0843A940713
:103E90004CF080917B0290917C02A1E0843A9A07D9
:103EA0000CF0F1C181E08093880410920403109219
:103EB00003031092A9001092A8001092AB00109278
:103EC000AA0010920203109201031092990010921E
:103ED000980010929B0010929A006F5F60933002DE
:103EE000683108F42ACF1092300281E08093CC022E
:103EF00024CF263009F021CF2091140530E04091E5
:103F00003002220F331F220F331F220F331F240FC3
:103F1000311D220F331FE0917B08F0917C08E20FE6
:103F2000F31F9183808360913002262F30E0220FAF
:103F3000331FE091490BF0914A0BE20FF31F4081D0
:103F400051814817590740F4918380836091300272
:103F5000262F30E0220F331FE091D905F091DA05CA
:103F6000E20FF31F208131818217930720F49183A0
:103F70008083609130026F5F60933002DECE90915B
:103F80007B00986090937B0090912F02985C9093B7
:103F90007C00823009F0ACCE8091E604882309F0E1
:103FA000A7CE20916504222339F480910501807FFA
:103FB0008093050112B89CCE213019F0223009F00F
:103FC00097CE8FEF8093050112B892CE9091130592
:103FD000963009F443C2973008F0CEC0923009F40D
:103FE000A9C2933008F46EC1943009F4D0C2953060
:103FF00008F4BFC2809130028F5F80932F0286E069
:104000008093C502809313058091C6025FCE2091F4
:104010000502222309F491CE63998FCE64998DCE47
:10402000422F4F5F40930502453008F486CE209121
:104030000103309102032115310551F02091FB025B
:104040003091FC02280F391F3093FC022093FB02B1
:10405000483009F072CE1092050281E0809304028C
:104060006CCE20910602222309F467CE3091000124
:1040700033FD63CE3091000134FD5FCE422F4F5FA0
:1040800040930602453008F458CE20910303309146
:1040900004032115310551F02091F9023091FA0203
:1040A000280F391F3093FA022093F902483009F0A3
:1040B00044CE1092060281E0809303023ECE83300C
:1040C00009F47CC0843009F0FFCD209144052F5FB6
:1040D0002093440530E080914005909141052817D8
:1040E000390709F408C18091310280932F02809131
:1040F00034028093C8028091C702882309F4CFC09C
:10410000813009F4B5C285E08093C50283E08093D5
:1041100036058091C602DACD833009F437C1843088
:1041200009F0D4CD9091320290932F0290913302F6
:104130009093C7029091C802992309F06AC183E065
:104140008093C5021092C602609130026E3009F46D
:104150002CC2862F90E060FFB7CD603108F033C2EB
:10416000669581E090E002C0880F991F6A95E2F79A
:1041700082B98091C602AACD993009F4C3C19A30A0
:1041800008F091C0973009F4E3C1983009F09CCD54
:104190008091320280932F02809133028093C70274
:1041A0008091C802882309F067C283E08093C5022A
:1041B00089E0809313058091C60288CD2091440543
:1041C0002F5F2093440530E0809140059091410598
:1041D0002817390709F4BEC08091320280932F025C
:1041E000809133028093C7028091C802882309F42A
:1041F00052C0813009F438C285E08093C50284E062
:10420000809336058091C60261CD209165042223FA
:1042100001F580910501807F8093050112B880919E
:10422000310280932F02809134028093C80285E08E
:104230008093C5028093E70482E0809336058091E5
:104240004605882319F581E0809346058091C602D2
:104250003DCD213011F0223011F78FEF8093050111
:1042600012B8DDCF80913002869580932F02809125
:10427000C702882309F0BFC081E08093C50281E0B6
:104280008093C60223CD1092880427CE1092460553
:104290008091C6021BCD83E08093C502B0CF81E040
:1042A0008093C50233CF9B3009F40FC19B3008F4D3
:1042B000E2C09C3009F008CD85E08093C502809172
:1042C000C60204CD992309F411C1913009F0FCCC48
:1042D000809130028F5F80932F0286E08093C50229
:1042E00082E0809313058091C602F0CC809336055E
:1042F0008091C602EBCC1092440580913F05882343
:1043000009F0A7C181E080933F058091460588238D
:1043100009F0E2C18AEA82B9809143058F5F8093F8
:10432000430590914205891709F0DDCE80913E0545
:104330008F5F80933E058C3009F45BC282E08093EE
:10434000E70482E08093360585E08093C502809182
:10435000C602BCCC1092440580913F05882309F029
:1043600074C181E080933F0580914605882309F060
:10437000B0C18AEA82B9809143058F5F809343057B
:1043800090914205891709F027CFD0CF8091310253
:1043900080932F02809134028093C8028091C702DB
:1043A0008823E9F581E08093C50284E08093C6020A
:1043B0008DCC8091320280932F02809133028093C2
:1043C000C7028091C8028823E9F483E08093C50284
:1043D00083E08093C6027ACC2091CB02223009F090
:1043E000F9CC9093CA028093C9021092CB024698EE
:1043F0002EE030E0F8CC813009F448C185E08093AC
:10440000C5023DCF813009F43DC185E08093C502EE
:10441000DFCF913009F085E08093C50293CE8130E3
:1044200009F438C185E08093C502BFCF11821082A4
:1044300080E090E005CDAC01445C5F4F5595479519
:10444000483751050CF0E8C023533D4FCC97959564
:104450008795CC96F90191838083FECC80913002C0
:104460008F5F80932F029093C50287E0809313059E
:104470008091C6022BCC8091320280932F028091D2
:1044800033028093C7028091C802882309F0E5C0F7
:1044900083E08093C50290912D059E3F18F49F5FA5
:1044A00090932D05809114058F5F809314052091C2
:1044B000E704243009F402C1843109F421C18BE0FE
:1044C000809313058091C60201CC10922F02909127
:1044D000C702992321F0913009F40AC185E0809345
:1044E000C502109213058091C602F0CB10923002E3
:1044F00080932F0296E09093C502809313058091DC
:10450000C602E4CB9091310290932F029091340235
:104510009093C8029091C702992321F0913009F439
:10452000EBC085E08093C5028AE0809313058091FB
:10453000C602CCCB809130028F5F80932F0286E041
:104540008093C50283E0809313058091C602BECBA1
:104550008091310280932F02809134028093C802AF
:1045600086E08093C50288E0809313058091C6029F
:10457000ADCB809130028F5F80932F0286E08093D5
:10458000C50284E0809313058091C6029FCB809181
:1045900030028F5F80932F0286E08093C50285E012
:1045A000809313058091C60291CB8091CB0281301C
:1045B00009F495C080E08ACB80913002873109F4FC
:1045C000F8C082E083CB20916504222379F44097E0
:1045D0009595879521E030E002C0220F331F8A9520
:1045E000E2F7209305018091C60270CB213019F0CB
:1045F000223009F069CB4091050140979595879548
:1046000021E030E002C0220F331F8A95E2F72095A7
:1046100024232093050158CBAC01445D5E4F559592
:10462000479555954795443B5105C4F523533D4F58
:10463000845B9040959587959595879588589F4F71
:10464000D90111969C938E9307CC10923F0512B816
:1046500092CE10923F0512B85FCE813009F4A5C00A
:1046600085E08093C50217CF84E08093C502C7CD53
:1046700082E08093C5024ACD8130B1F185E080931C
:10468000C50296CD84E08093C502A2CE82E08093DD
:10469000C502F5CD82E08093C50287CE23533D4FFE
:1046A000845A914095958795959587959595879589
:1046B0008C549F4FF90191838083CECB10921405C7
:1046C00080911E05981708F4FACE85E08093E704E0
:1046D000F6CE85E582B94FCE85E582B91DCE82E062
:1046E0008093CB02469A35CD84E08093C50260CD9D
:1046F00082E08093C502F5CE82E08093C50214CF9C
:104700001092140580915F089091600820917B08B9
:1047100030917C083093600820935F0890937C0868
:1047200080937B0850915C0540915D058091490B19
:1047300090914A0B90935D0580935C055093490BD3
:1047400040934A0B809148059091490590938B0BBB
:1047500080938A0B2091D9053091DA053093490571
:10476000209348059093DA058093D905E52FF42F1F
:1047700080E1DF011D928A95E9F78091D90590913A
:10478000DA056FEF70E040E150E00E94BC57809185
:10479000E704813009F444C08091E704853009F0D2
:1047A0008ECE86E08093E7048ACE84E08093C502B3
:1047B00072CE10922F021092CB021092130510921B
:1047C0001405E091490BF0914A0B80E1DF011D9245
:1047D0008A95E9F78091D9059091DA056FEF70E03D
:1047E00040E150E00E94BC571093E6041091E404AD
:1047F000CFCA81E08093E704109238051092C60278
:104800001092E6040E94554712B80E94931D6093CF
:10481000390570933A0580933B0590933C0591CD03
:1048200082E08093E70410922D05B6CF0F931F937B
:10483000CF93DF93E0E9F0E0108241E950E0DA0144
:104840001C9221E730E0E9011882A0EAB0E01C9256
:1048500081EA90E0EC01188202E710E0E80118829A
:10486000608163686083608163606083EA0168815E
:104870006B6068834091010350910203509399004B
:104880004093980010929B0010929A00E901488191
:104890004160488320812F7520832EB1277E2EB959
:1048A0002C9123682C93FC0120812B602083809124
:1048B0000303909104039093A9008093A8001092A1
:1048C000AB001092AA00E8018881816088838C91F6
:1048D0008F758C93E2E0F1E08081877E8083DF91A9
:1048E000CF911F910F910895282F392F8EEF2130EE
:1048F000380714F421E03EEF82E02030380714F04E
:104900002FEF31E0C9010895282F332727FD309577
:1049100037FD13C030931E0320931D0387FD05C090
:1049200030930803209307030895309521953F4F56
:1049300030930803209307030895309521953F4F46
:10494000E9CF282F332727FD309537FD13C030934B
:10495000200320931F0387FD05C030930603209397
:1049600005030895309521953F4F3093060320931A
:1049700005030895309521953F4FE9CF8091650556
:10498000882389F5E091CD08E23008F496C0F0E084
:10499000DF01A295B295B07FBA27A07FBA27AC52AB
:1049A000B74F12962D913C9113978091880B90915F
:1049B000890B2817390734F0C90101969093890BA8
:1049C0008093880BE295F295F07FFE27E07FFE272B
:1049D000EC51F74F2091CE043091CF0431832083E6
:1049E000938382830895813031F0823009F46BC063
:1049F000833091F10895E091CD08E23008F493C03E
:104A0000F0E0DF01A295B295B07FBA27A07FBA2768
:104A1000AC52B74F16962D913C9117978091880B09
:104A20009091890B2817390734F0C90101969093AA
:104A3000890B8093880BE295F295F07FFE27E07F4B
:104A4000FE27EC51F74F2091D0043091D1043583EB
:104A50002483978386830895E091CD08E23008F49B
:104A600068C0F0E0DF01A295B295B07FBA27A07FC1
:104A7000BA27AC52B74F1E962D913C911F9780914B
:104A8000880B9091890B2817390734F0C9010196DA
:104A90009093890B8093880BE295F295F07FFE2727
:104AA000E07FFE27EC51F74F2091D0043091D104E4
:104AB00035872487978786870895F0E08091880B53
:104AC0009091890B7FCFE091CD08E230C0F1F0E00A
:104AD000DF01A295B295B07FBA27A07FBA27AC526A
:104AE000B74F1A962D913C911B978091880B90910E
:104AF000890B2817390734F0C90101969093890B67
:104B00008093880BE295F295F07FFE27E07FFE27E9
:104B1000EC51F74F2091CE043091CF04318720879C
:104B2000938782870895F0E08091880B9091890B9C
:104B300082CFF0E08091880B9091890BADCFF0E0AF
:104B40008091880B9091890BDDCF8091730B84301D
:104B500009F4D6C1853080F0863009F483C28630EE
:104B6000B0F58091CD088F5F8093CD088A3009F42D
:104B7000C3C21092730B0895813009F472C1813061
:104B800008F073C080916505882309F079C21092FE
:104B90000A03109209039091CD0885E0989FC00107
:104BA0001124880F991F880F991F90930C038093ED
:104BB0000B0381E08093730B0E94931D6093430B62
:104BC0007093440B8093450B9093460B0895873068
:104BD00009F402C2883079F680916505882309F4CA
:104BE000DCC0823009F4D9C080917B0290917C02B4
:104BF0002091DE043091DF04821793070CF4D9C0B2
:104C00002091E0043091E1042817390724F49093AF
:104C1000E1048093E0040E94931D2091430B3091A6
:104C2000440B4091450B5091460B621B730B840B58
:104C3000950B6E3C2BEB720720E0820720E0920779
:104C400008F499CF8091E0049091E1042091DE0472
:104C50003091DF04820F931F959587959093E3041D
:104C60008093E2041092730B0895823009F487C197
:104C7000833009F080CF80916505882309F49EC0B8
:104C8000823009F49BC020917B0230917C0280919C
:104C9000E2049091E304281739070CF055C00E94F4
:104CA000931D20915E0530915F0540916005509104
:104CB0006105621B730B840B950B60935E0570930B
:104CC0005F0580936005909361050E94355520E053
:104CD00030E040ED52E40E94505620E034E244E7D8
:104CE00059E40E949C549B01AC0164E17EE288E798
:104CF00093E40E949C540E9409557093890B609321
:104D0000880B2091CC043091CD0440E050E06091BC
:104D1000C6047091C7048091C8049091C9040E9490
:104D200021573093D1042093D0040E94BE2484E004
:104D30008093730B0E94931D6093430B7093440BFD
:104D40008093450B9093460B0E94931D2091430B3B
:104D50003091440B4091450B5091460B621B730BF5
:104D6000840B950B6C392DEC720728E0820720E04C
:104D7000920708F400CF1092890B1092880B1092C2
:104D8000CF041092CE041092D1041092D0040E944D
:104D9000BE2485E08093730B0895809175029091F5
:104DA00076022091DE043091DF04821793070CF025
:104DB00027CF9093DF048093DE0422CF20917502E9
:104DC000309176028091E2049091E304281739072C
:104DD0000CF0BACF0E94931D20915E0530915F05C3
:104DE0004091600550916105621B730B840B950B1C
:104DF00060935E0570935F058093600590936105F5
:104E00000E94355520E030E040ED52E40E945056BB
:104E100020E034E244E759E40E949C549B01AC0139
:104E200064E17EE288E793E40E949C540E94095565
:104E30007093890B6093880B2091CA043091CB0446
:104E400040E050E06091C2047091C3048091C404BA
:104E50009091C5040E9421573093CF042093CE0433
:104E600064CF80916505882391F1823081F1209192
:104E70007B0230917C028091E2049091E304281738
:104E800039070CF061CF1092CD041092CC0410922F
:104E9000C6041092C7041092C8041092C9040E945C
:104EA000931D60935E0570935F05809360059093FA
:104EB000610582E08093730B0E94931D6093430B06
:104EC0007093440B8093450B9093460B3DCF2091FC
:104ED0007502309176028091E2049091E3042817E4
:104EE00039070CF031CF1092CB041092CA04109203
:104EF000C2041092C3041092C4041092C504CFCF10
:104F000080916505882361F1823051F120917B0207
:104F100030917C028091E2049091E3048217930720
:104F200054F10E94931D2091430B3091440B40910A
:104F3000450B5091460B621B730B840B950B6C3920
:104F40002DEC720728E0820720E0920708F413CEC8
:104F50001092890B1092880B85E08093730B089553
:104F600020917502309176028091E2049091E304E1
:104F700082179307B4F685E08093730BD2CF8091AC
:104F800065058823E1F08230D1F020917B023091D9
:104F90007C028091E2049091E304821793070CF065
:104FA000D3CE83E08093730B0E94931D6093430BD9
:104FB0007093440B8093450B9093460BC5CE209184
:104FC0007502309176028091E2049091E304821799
:104FD00093070CF0B9CEE5CF0E94931D2091430BAF
:104FE0003091440B4091450B5091460B621B730B63
:104FF000840B950B603925E2720720E0820720E0E0
:10500000920708F4B8CD80916505882309F456C04D
:10501000813009F4A0C0823009F4A8C0833051F473
:1050200084EC9FEF90930A038093090310920C0382
:1050300010920B038FEF93E09093DF048093DE04D4
:105040001092E1041092E00488E08093730B0E94B8
:10505000931D6093430B7093440B8093450B909387
:10506000460B08950E94931D6093430B7093440B6D
:105070008093450B9093460B87E08093730B0895C4
:10508000813039F1823009F450C0833009F091CD7C
:105090009091CD0885E0989FC0011124880F991F39
:1050A000880F991F909581959F4F90930A03809345
:1050B000090310920C0310920B037BCD10920A038C
:1050C000109209038CE390E090930C0380930B0300
:1050D000B1CF9091CD0885E0989FC0011124880F31
:1050E000991F880F991F90930A03809309031092C8
:1050F0000C0310920B035DCD91E09093CD0880914D
:105100006505882321F482E08093650532CD8130E6
:10511000C1F18230D1F1833009F02BCD10926505B9
:105120000E9436471092800524CD10920A031092F7
:1051300009039091CD0885E0989FC0011124880F44
:10514000991F880F991F909581959F4F90930C03FD
:1051500080930B032ECD8CE390E090930A03809311
:10516000090310920C0310920B0364CF10920A03F0
:105170001092090384EC9FEF90930C0380930B0330
:1051800059CF83E080936505F4CC90936505109228
:10519000800586E08093730B0895AF92BF92CF9203
:1051A000DF92EF92FF920F931F93CF93DF939C01B7
:1051B000220F331F220F331F280F391F21153105EE
:1051C00009F47BC0862F8250823008F484C06623A5
:1051D00009F084C08091F6089091F7088217930730
:1051E0000CF01BC280910609909107098217930762
:1051F0000CF01CC280911609909117098217930731
:105200000CF017C280912609909127098217930705
:105210000CF012C2809136099091370982179307DA
:105220000CF0FEC1809146099091470982179307BF
:105230000CF0F9C180915609909157098217930794
:105240000CF002C28091660990916709821793075A
:105250000CF0FDC1C0917609D0917709C217D30730
:105260000CF07AC1B901882777FD8095982F0E94AC
:1052700037557B018C0160917409709175098827FD
:1052800077FD8095982F0E9437559B01AC01C8018E
:10529000B7010E9450567B018C01BE01882777FD23
:1052A0008095982F0E9437559B01AC01C801B7012A
:1052B0000E949C540E94045502C060E070E0CB0143
:1052C000DF91CF911F910F91FF90EF90DF90CF90E2
:1052D000BF90AF900895309521953F4F633009F40A
:1052E000F3C0623001F1613009F498C0662309F41B
:1052F00090C0613009F48CC1623009F4A0C1633000
:10530000E1F6C0918209D0918309B901882777FD20
:105310008095982F0E9437557B018C016091800900
:105320007091810955C08091FE089091FF08821705
:1053300093070CF072C180910E0990910F098217AA
:1053400093070CF073C180911E0990911F09821779
:1053500093070CF06EC180912E0990912F0982174E
:1053600093070CF069C180913E0990913F09821723
:1053700093070CF055C180914E0990914F09821707
:1053800093070CF050C180915E0990915F098217DC
:1053900093070CF059C180916E0990916F098217A3
:1053A00093070CF054C1C0917E09D0917F09C217B8
:1053B000D3070CF0D1C0B901882777FD8095982FCD
:1053C0000E9437557B018C0160917C0970917D09A9
:1053D000882777FD8095982F0E9437559B01AC0157
:1053E000C801B7010E9450567B018C01BE0188277D
:1053F00077FD8095982F0E9437559B01AC01C8011D
:10540000B7010E949C540E940455709561957F4F8E
:1054100056CFC0917609D091770924CF8091FA08B0
:105420009091FB08821793070CF0F7C080910A094E
:1054300090910B09821793070CF0F8C080911A091C
:1054400090911B09821793070CF0F3C080912A09F1
:1054500090912B09821793070CF0EEC080913A09C6
:1054600090913B09821793070CF0DAC080914A09AA
:1054700090914B09821793070CF0D5C080915A097F
:1054800090915B09821793070CF0DEC080916A0946
:1054900090916B09821793070CF0D9C0C0917A09DB
:1054A000D0917B09C217D3070CF056C0B9018827E9
:1054B00077FD8095982F0E9437557B018C01609174
:1054C000780970917909DBCE8091020990910309E6
:1054D000821793070CF0A1C08091120990911309D3
:1054E000821793070CF0A2C08091220990912309A2
:1054F000821793070CF09DC0809132099091330977
:10550000821793070CF098C080914209909143094B
:10551000821793070CF084C080915209909153092F
:10552000821793070CF07FC0809162099091630904
:10553000821793070CF088C08091720990917309CB
:10554000821793070CF083C0C0918209D091830920
:10555000C217D3070CF4D9CEC8E0D0E0209709F0E9
:1055600079C0662391F44091F4085091F508249F86
:10557000C001259F900D349F900D11246091F60875
:105580007091F7080E940E579ACE6130D1F06230C8
:1055900051F1633009F091CE409100095091010919
:1055A000249FC001259F900D349F900D1124609180
:1055B0000209709103090E940E57709561957F4F03
:1055C0007ECE4091F8085091F908249FC001259F94
:1055D000900D349F900D11246091FA087091FB0892
:1055E0000E940E576CCE4091FC085091FD08249FFC
:1055F000C001259F900D349F900D11246091FE08ED
:105600007091FF080E940E57709561957F4F57CE9D
:10561000C0917A09D0917B0949CFC0E0D0E09ECFFC
:10562000C4E0D0E09BCFC5E0D0E098CFC1E0D0E0AF
:1056300095CFC2E0D0E092CFC3E0D0E08FCFC09151
:105640007E09D0917F09B7CEC6E0D0E087CFC7E012
:10565000D0E084CFC930D10509F448CE662309F0E3
:1056600047C0FE01E295F295F07FFE27E07FFE271E
:10567000EC51F74FC280D380A080B1802C193D0936
:10568000B901882777FD8095982F0E9437557B01B7
:105690008C01C295D295D07FDC27C07FDC27CC500F
:1056A000D74F688179816A197B09882777FD8095B2
:1056B000982F0E9437559B01AC01C801B7010E9489
:1056C00050567B018C016A817B816C197D0988278A
:1056D00077FD8095982F0E9437559B01AC01C8013A
:1056E000B7010E949C540E9404556A0D7B1DE7CDB2
:1056F000613009F450C0623009F482C0633009F0AF
:10570000DCCDFE01E295F295F07FFE27E07FFE27DB
:10571000EC51F74FC684D784A484B5842C193D0975
:10572000B901882777FD8095982F0E9437557B0116
:105730008C01C295D295D07FDC27C07FDC27CC506E
:10574000D74F6C857D856A197B09882777FD809501
:10575000982F0E9437559B01AC01C801B7010E94E8
:1057600050567B018C016E857F856C197D098827D9
:1057700077FD8095982F0E9437559B01AC01C80199
:10578000B7010E949C540E9404556A0D7B1D7095C0
:1057900061957F4F94CDFE01E295F295F07FFE2753
:1057A000E07FFE27EC51F74FC680D780A480B580FC
:1057B0002C193D09B901882777FD8095982F0E9403
:1057C00037557B018C01C295D295D07FDC27C07FF5
:1057D000DC27CC50D74F6C817D816A197B098827E3
:1057E00077FD8095982F0E9437559B01AC01C80129
:1057F000B7010E9450567B018C016E817F8165CF7D
:10580000FE01E295F295F07FFE27E07FFE27EC5146
:10581000F74FC284D384A084B1842C193D09B90107
:10582000882777FD8095982F0E9437557B018C0142
:10583000C295D295D07FDC27C07FDC27CC50D74FD4
:10584000688579856A197B09882777FD8095982F67
:105850000E9437559B01AC01C801B7010E94505608
:105860007B018C016A857B8580CF8F929F92AF925E
:10587000BF92CF92DF92EF92FF920F931F93CF933D
:10588000DF93C091FF02D0910003809101039091BA
:10589000020397FDD9C06091F8087091F9086C1760
:1058A0007D070CF0BDC00FEF1FEF809108099091AC
:1058B00009098C179D0744F081E09FEF0F3F1907FE
:1058C00009F080E0082F10E08091180990911909E3
:1058D0008C179D072CF08FEF0F3F180709F46CC150
:1058E00080912809909129098C179D072CF09FEF32
:1058F0000F3F190709F472C1809138099091390955
:105900008C179D072CF08FEF0F3F180709F463C128
:1059100080914809909149098C179D072CF09FEFC1
:105920000F3F190709F454C1809158099091590902
:105930008C179D072CF08FEF0F3F180709F445C116
:1059400080916809909169098C179D072CF09FEF51
:105950000F3F190709F436C1E0907809F0907909F2
:10596000EC16FD062CF08FEF0F3F180709F427C146
:10597000209709F458C00115110509F432C19FEFB1
:105980000F3F190709F4E9C0F801E295F295F07F9D
:10599000FE27E07FFE27EC51F74FA480B58086807C
:1059A0009780CA19DB09BE01882777FD8095982F5B
:1059B0000E9437556B017C01E801C295D295D07FDA
:1059C000DC27C07FDC27CC50D74F6E817F816819E0
:1059D0007909882777FD8095982F0E9437559B017C
:1059E000AC01C701B6010E9450567B018C016C814D
:1059F0007D816A197B09882777FD8095982F0E9401
:105A000037559B01AC01C801B7010E949C540E940C
:105A10000455680D791D7093D5046093D40407C0B4
:105A200000E010E042CF1092D5041092D404DF9130
:105A3000CF911F910F91FF90EF90DF90CF90BF908B
:105A4000AF909F908F900895609100097091010927
:105A50006C177D070CF07EC00FEF1FEF80911009CF
:105A6000909111098C179D0744F081E09FEF0F3F43
:105A7000190709F080E0082F10E08091200990912B
:105A800021098C179D072CF08FEF0F3F180709F4A1
:105A900019C180913009909131098C179D072CF024
:105AA0009FEF0F3F190709F40AC1809140099091B7
:105AB00041098C179D072CF08FEF0F3F180709F451
:105AC000FBC080915009909151098C179D072CF0D3
:105AD0009FEF0F3F190709F4ECC080916009909186
